:020000040800F2
:1000000000280020BD0700084D070008530700081E
:10001000590700085F070008650700080000000096
:100020000000000000000000000000006B07000856
:100030007707000800000000830700088F0700080A
:10004000050800080508000805080008050800085C
:10005000050800080508000805080008050800084C
:10006000050800080508000805080008050800083C
:10007000050800080508000805080008050800082C
:10008000050800080508000805080008050800081C
:10009000050800080508000805080008050800080C
:1000A00005080008050800080508000805080008FC
:1000B0009D0700080508000800000000050800086A
:1000C0000508000800000000000000000508000806
:1000D00000000000050800080508000800000000F6
:1000E00005080008050800080508000800000000D1
:1000F0000000000000000000000000000000000000
:0C01000000000000000000005FF808F1A3
:10010C0010B5054C237833B9044B13B10448AFF345
:10011C0000800123237010BD10000020000000009F
:10012C00001E000808B5034B1BB103490348AFF38D
:10013C00008008BD0000000014000020001E000814
:10014C0080B582B000AF78607B68002B22D1002292
:10015C000121BD4800F03EFE00220221BA4800F009
:10016C0039FE00220421B84800F034FE0022082198
:10017C00B54800F02FFE00221021B34800F02AFEF3
:10018C0000222021B04800F025FE01224021AE487B
:10019C0000F020FE7B68012B22D101220121AA480C
:1001AC0000F018FE00220221A74800F013FE0022E6
:1001BC000421A54800F00EFE01220821A24800F0FF
:1001CC0009FE01221021A04800F004FE012220218A
:1001DC009D4800F0FFFD012240219B4800F0FAFDF4
:1001EC007B68022B22D100220121974800F0F2FDFE
:1001FC0000220221944800F0EDFD012204219248D6
:10020C0000F0E8FD002208218F4800F0E3FD0022F9
:10021C0010218D4800F0DEFD012220218A4800F0DB
:10022C00D9FD00224021884800F0D4FD7B68032BC7
:10023C0022D100220121844800F0CCFD00220221B1
:10024C00814800F0C7FD002204217F4800F0C2FD68
:10025C00002208217C4800F0BDFD012210217A48C3
:10026C0000F0B8FD01222021774800F0B3FD0022F8
:10027C004021754800F0AEFD7B68042B22D1012291
:10028C000121714800F0A6FD002202216E4800F009
:10029C00A1FD002204216C4800F09CFD01220821E4
:1002AC00694800F097FD01221021674800F092FD8B
:1002BC0000222021644800F08DFD0022402162487C
:1002CC0000F088FD7B68052B22D1002201215E48BD
:1002DC0000F080FD012202215B4800F07BFD002232
:1002EC000421594800F076FD00220821564800F000
:1002FC0071FD01221021544800F06CFD00222021D8
:10030C00514800F067FD002240214F4800F062FD8B
:10031C007B68062B22D1002201214B4800F05AFDAC
:10032C0001220221484800F055FD002204214648D4
:10033C0000F050FD00220821434800F04BFD002244
:10034C001021414800F046FD002220213E4800F0DB
:10035C0041FD002240213C4800F03CFD7B68072B0E
:10036C0022D100220121384800F034FD0022022164
:10037C00354800F02FFD00220421334800F02AFDFF
:10038C0001220821304800F025FD012210212E48C1
:10039C0000F020FD012220212B4800F01BFD012242
:1003AC004021294800F016FD7B68082B22D1002241
:1003BC000121254800F00EFD00220221224800F008
:1003CC0009FD00220421204800F004FD0022082130
:1003DC001D4800F0FFFC002210211B4800F0FAFC25
:1003EC0000222021184800F0F5FC0022402116487C
:1003FC0000F0F0FC7B68092B22D10022012112486D
:10040C0000F0E8FC002202210F4800F0E3FC00227F
:10041C0004210D4800F0DEFC002208210A4800F0FF
:10042C00D9FC01221021084800F0D4FC0022202124
:10043C00054800F0CFFC00224021034800F0CAFC24
:10044C0000BF0837BD4680BD000C014080B500AF31
:10045C0000F0D4F900F00AF800F090F800F042F83F
:10046C00014801F007F9FEE72C00002080B590B0A0
:10047C0000AF07F1180328220021184601F0B2FC46
:10048C003B1D00221A605A609A60DA601A610223DE
:10049C00BB610123BB621023FB6200237B6307F16A
:1004AC001803184600F0AEFC0346002B01D000F0F8
:1004BC00FBF80F237B600023BB600023FB60002351
:1004CC003B6100237B613B1D0021184600F01CFFA3
:1004DC000346002B01D000F0E7F800BF4037BD46C3
:1004EC0080BD000080B586B000AF07F10803002284
:1004FC001A605A609A60DA603B4600221A605A60B1
:10050C001D4B4FF080421A601B4B41F63F725A60F4
:10051C00194B00229A60184B0922DA60164B002204
:10052C001A61154B00229A61134801F053F80346E7
:10053C00002B01D000F0B8F84FF48053BB6007F1EA
:10054C00080319460C4801F0E9F90346002B01D0C9
:10055C0000F0AAF800233B6000237B603B46194661
:10056C00054801F0B1FB0346002B01D000F09CF8CC
:10057C0000BF1837BD4680BD2C00002080B586B06A
:10058C0000AF07F1080300221A605A609A60DA6023
:10059C00204B9B691F4A43F0040393611D4B9B69DD
:1005AC0003F004037B607B681A4B9B69194A43F088
:1005BC0008039361174B9B6903F008033B603B688E
:1005CC000022E021144800F005FC00227F21134892
:1005DC0000F000FCE023BB600123FB6000233B61C7
:1005EC0002237B6107F1080319460B4800F076FAE9
:1005FC007F23BB600123FB6000233B6102237B61F3
:10060C0007F108031946054800F068FA00BF1837CF
:10061C00BD4680BD0010024000080140000C0140A6
:10062C0080B582B000AF78601C4B1B68002B2BDCB4
:10063C001A4B64221A601A4B1B68002B02D0012B38
:10064C0011D022E000224021164800F0C3FB012209
:10065C008021144800F0BEFB0120FFF771FD104B08
:10066C0001221A6011E0012240210E4800F0B2FB79
:10067C00002280210B4800F0ADFB0220FFF760FD4B
:10068C00074B00221A6000E000BF044B1B68013BC3
:10069C00024A136000BF0837BD4680BD0000002031
:1006AC00740000200008014080B400AF72B600BF97
:1006BC00FEE7000080B483B000AF0E4B9B690D4A7F
:1006CC0043F0010393610B4B9B6903F001037B60C7
:1006DC007B68084BDB69074A43F08053D361054BB9
:1006EC00DB6903F080533B603B6800BF0C37BD46B1
:1006FC0080BC70470010024080B584B000AF7860B9
:10070C007B681B68B3F1804F13D10C4BDB690B4A30
:10071C0043F00103D361094BDB6903F00103FB6078
:10072C00FB68002200211C2000F0A1F91C2000F025
:10073C00BAF900BF1037BD4680BD00BF00100240A3
:10074C0080B400AFFEE780B400AFFEE780B400AF2A
:10075C00FEE780B400AFFEE780B400AFFEE780B4E4
:10076C0000AF00BFBD4680BC704780B400AF00BF77
:10077C00BD4680BC704780B400AF00BFBD4680BC96
:10078C00704780B500AF00F07FF800BF80BD00005F
:10079C0080B500AF024800F0B9FF00BF80BD00BFBC
:1007AC002C00002080B400AF00BFBD4680BC704759
:1007BC000C480D490D4A002302E0D458C4500433B0
:1007CC00C4188C42F9D30A4A0A4C002301E0136086
:1007DC000432A242FBD3FFF7E5FF01F0DFFAFFF78B
:1007EC0035FE70470000002010000020401E00085D
:1007FC00100000207C000020FEE7000080B500AF58
:10080C00084B1B68074A43F010031360032000F0E9
:10081C0023F90F2000F008F8FFF74CFF00231846CF
:10082C0080BD00BF0020024080B582B000AF786070
:10083C00124B1A68124B1B7819464FF47A73B3FBA0
:10084C00F1F3B2FBF3F3184600F03BF90346002B2F
:10085C0001D001230EE07B680F2B0AD800227968A7
:10086C004FF0FF3000F003F9064A7B681360002359
:10087C0000E0012318460837BD4680BD0400002067
:10088C000C0000200800002080B400AF054B1B7842
:10089C001A46054B1B681344034A136000BFBD4640
:1008AC0080BC70470C0000207800002080B400AFA2
:1008BC00024B1B681846BD4680BC70477800002070
:1008CC0080B485B000AF78607B6803F00703FB60F1
:1008DC000C4BDB68BB60BA684FF6FF031340BB6080
:1008EC00FB681A02BB68134343F0BF6343F4003345
:1008FC00BB60044ABB68D36000BF1437BD4680BCE4
:10090C00704700BF00ED00E080B400AF044BDB6823
:10091C001B0A03F007031846BD4680BC704700BF96
:10092C0000ED00E080B483B000AF0346FB7197F993
:10093C000730002B0BDBFB7903F01F02064997F9FC
:10094C0007305B09012000FA02F241F8232000BFB6
:10095C000C37BD4680BC704700E100E080B483B02A
:10096C0000AF03463960FB7197F90730002B0ADBA7
:10097C003B68DAB20C4997F907301201D2B20B443A
:10098C0083F800230AE03B68DAB20849FB7903F0EC
:10099C000F03043B1201D2B20B441A7600BF0C3782
:1009AC00BD4680BC704700BF00E100E000ED00E0F8
:1009BC0080B489B000AFF860B9607A60FB6803F06E
:1009CC000703FB61FB69C3F10703042B28BF042356
:1009DC00BB61FB690433062B02D9FB69033B00E0C6
:1009EC0000237B614FF0FF32BB6902FA03F3DA4359
:1009FC00BB681A407B699A404FF0FF317B6901FA62
:100A0C0003F3D9437B680B40134318462437BD4688
:100A1C0080BC704780B582B000AF78607B68013BCA
:100A2C00B3F1807F01D301230FE00A4A7B68013BBD
:100A3C0053600F214FF0FF30FFF790FF054B002262
:100A4C009A60044B07221A60002318460837BD46EB
:100A5C0080BD00BF10E000E080B582B000AF7860D0
:100A6C007868FFF72DFF00BF0837BD4680BD80B505
:100A7C0086B000AF0346B9607A60FB7300237B61DC
:100A8C00FFF742FF78617A68B9687869FFF790FFE1
:100A9C00024697F90F3011461846FFF75FFF00BF6B
:100AAC001837BD4680BD80B582B000AF0346FB71E0
:100ABC0097F907301846FFF735FF00BF0837BD46DA
:100ACC0080BD80B582B000AF78607868FFF7A2FF78
:100ADC00034618460837BD4680BD000080B48BB075
:100AEC0000AF7860396000237B6200233B6261E1D8
:100AFC0001227B6A02FA03F3FB613B681B68FA690B
:100B0C001340BB61BA69FB699A4240F050813B6863
:100B1C005B68974A93425ED0954A934275D8954A42
:100B2C00934258D0934A93426FD8934A934252D0EF
:100B3C00914A934269D8914A93424CD08F4A93423E
:100B4C0063D88F4A934246D08D4A93425DD8122B7C
:100B5C002AD8122B59D801A252F823F0E30B000823
:100B6C00BD0B0008CF0B0008110C0008170C000877
:100B7C00170C0008170C0008170C0008170C0008BD
:100B8C00170C0008170C0008170C0008170C0008AD
:100B9C00170C0008170C0008170C0008170C00089D
:100BAC00C50B0008D90B0008764A934213D02CE0F1
:100BBC003B68DB683B6229E03B68DB6804333B62E3
:100BCC0024E03B68DB6808333B621FE03B68DB6872
:100BDC000C333B621AE03B689B68002B02D1042368
:100BEC003B6213E03B689B68012B05D108233B62F9
:100BFC007B68FA691A6109E008233B627B68FA6931
:100C0C005A6103E000233B6200E000BFBB69FF2B8D
:100C1C0001D87B6801E07B6804337B61BB69FF2BE7
:100C2C0002D87B6A9B0002E07B6A083B9B003B611D
:100C3C007B691A680F213B6901FA03F3DB431A4005
:100C4C00396A3B6901FA03F31A437B691A603B6802
:100C5C005B6803F08053002B00F0A9804A4B9B6922
:100C6C00494A43F001039361474B9B6903F001032D
:100C7C00BB60BB68454A7B6A9B08023352F8233041
:100C8C00FB607B6A03F003039B000F2202FA03F361
:100C9C00DB43FA681340FB607B683D4A93420DD0FE
:100CAC007B683C4A934207D07B683B4A934201D114
:100CBC00022304E0032302E0012300E000237A6A0C
:100CCC0002F0030292009340FA681343FB602F4931
:100CDC007B6A9B080233FA6841F823203B685B6807
:100CEC0003F48033002B06D02C4B1A682B49BB69BC
:100CFC0013430B6006E0294B1A68BB69DB43274999
:100D0C0013400B603B685B6803F40033002B06D088
:100D1C00224B5A682149BB6913434B6006E01F4BB9
:100D2C005A68BB69DB431D4913404B603B685B68E9
:100D3C0003F48013002B06D0184B9A681749BB6933
:100D4C0013438B6006E0154B9A68BB69DB43134970
:100D5C0013408B603B685B6803F40013002B1FD0BF
:100D6C000E4BDA680D49BB691343CB601FE000BF23
:100D7C000000321000003110000022100000211081
:100D8C000000121000001110001002400000014081
:100D9C0000080140000C014000100140000401401B
:100DAC000B4BDA68BB69DB4309491340CB607B6AA8
:100DBC0001337B623B681A687B6A22FA03F3002BCF
:100DCC007FF496AE00BF00BF2C37BD4680BC704789
:100DDC000004014080B483B000AF78600B467B8088
:100DEC0013467B707B78002B03D07A887B681A6162
:100DFC0003E07B881A047B681A6100BF0C37BD4680
:100E0C0080BC704780B586B000AF78607B68002BE3
:100E1C0001D1012372E27B681B6803F00103002BF4
:100E2C0000F08780924B5B6803F00C03042B0CD012
:100E3C008F4B5B6803F00C03082B12D18C4B5B6857
:100E4C0003F48033B3F5803F0BD1894B1B6803F45B
:100E5C000033002B6CD07B685B68002B68D10123BE
:100E6C004CE27B685B68B3F5803F06D1804B1B6816
:100E7C007F4A43F4803313602EE07B685B68002B61
:100E8C000CD17B4B1B687A4A23F480331360784B6C
:100E9C001B68774A23F4802313601DE07B685B6832
:100EAC00B3F5A02F0CD1724B1B68714A43F480230D
:100EBC0013606F4B1B686E4A43F4803313600BE076
:100ECC006B4B1B686A4A23F480331360684B1B68B6
:100EDC00674A23F4802313607B685B68002B13D074
:100EEC00FFF7E4FC386108E0FFF7E0FC02463B69E1
:100EFC00D31A642B01D9032300E25D4B1B6803F466
:100F0C000033002BF0D014E0FFF7D0FC386108E080
:100F1C00FFF7CCFC02463B69D31A642B01D903239F
:100F2C00ECE1534B1B6803F40033002BF0D100E0D1
:100F3C0000BF7B681B6803F00203002B63D04C4B93
:100F4C005B6803F00C03002B0BD0494B5B6803F080
:100F5C000C03082B1CD1464B5B6803F48033002B2D
:100F6C0016D1434B1B6803F00203002B05D07B68A2
:100F7C001B69012B01D00123C0E13D4B1B6823F001
:100F8C00F8027B685B69DB00394913430B603AE07C
:100F9C007B681B69002B20D0364B01221A60FFF7AF
:100FAC0085FC386108E0FFF781FC02463B69D31AE7
:100FBC00022B01D90323A1E12D4B1B6803F0020383
:100FCC00002BF0D02A4B1B6823F0F8027B685B697E
:100FDC00DB00274913430B6015E0264B00221A60F7
:100FEC00FFF764FC386108E0FFF760FC02463B69E0
:100FFC00D31A022B01D9032380E11D4B1B6803F08C
:10100C000203002BF0D17B681B6803F00803002B54
:10101C003AD07B689B69002B19D0174B01221A60C0
:10102C00FFF744FC386108E0FFF740FC02463B69DF
:10103C00D31A022B01D9032360E10D4B5B6A03F039
:10104C000203002BF0D0012000F0A6FA1CE00A4BA2
:10105C0000221A60FFF72AFC38610FE0FFF726FC2C
:10106C0002463B69D31A022B08D9032346E100BF81
:10107C00001002400000424280044242924B5B6AE4
:10108C0003F00203002BE9D17B681B6803F0040317
:10109C00002B00F0A6800023FB758B4BDB6903F063
:1010AC008053002B0DD1884BDB69874A43F080536A
:1010BC00D361854BDB6903F08053BB60BB680123B4
:1010CC00FB75824B1B6803F48073002B18D17F4B8C
:1010DC001B687E4A43F480731360FFF7E7FB3861AB
:1010EC0008E0FFF7E3FB02463B69D31A642B01D9F6
:1010FC00032303E1754B1B6803F48073002BF0D0C2
:10110C007B68DB68012B06D16F4B1B6A6E4A43F080
:10111C00010313622DE07B68DB68002B0CD16A4B5A
:10112C001B6A694A23F001031362674B1B6A664A08
:10113C0023F0040313621CE07B68DB68052B0CD1E5
:10114C00614B1B6A604A43F0040313625E4B1B6ADB
:10115C005D4A43F0010313620BE05B4B1B6A5A4A76
:10116C0023F001031362584B1B6A574A23F0040304
:10117C0013627B68DB68002B15D0FFF797FB386197
:10118C000AE0FFF793FB02463B69D31A41F288321F
:10119C00934201D90323B1E04B4B1B6A03F00203CA
:1011AC00002BEED014E0FFF781FB38610AE0FFF76B
:1011BC007DFB02463B69D31A41F28832934201D936
:1011CC0003239BE0404B1B6A03F00203002BEED180
:1011DC00FB7D012B05D13C4BDB693B4A23F0805353
:1011EC00D3617B68DB69002B00F08780364B5B6832
:1011FC0003F00C03082B61D07B68DB69022B46D112
:10120C00334B00221A60FFF751FB386108E0FFF7FF
:10121C004DFB02463B69D31A022B01D903236DE027
:10122C00294B1B6803F00073002BF0D17B681B6A01
:10123C00B3F5803F08D1244B5B6823F400327B6804
:10124C009B68214913434B601F4B5B6823F474125A
:10125C007B68196A7B685B6A0B431B4913434B60C1
:10126C001B4B01221A60FFF721FB386108E0FFF7E6
:10127C001DFB02463B69D31A022B01D903233DE027
:10128C00114B1B6803F00073002BF0D035E0104BB2
:10129C0000221A60FFF70AFB386108E0FFF706FB33
:1012AC0002463B69D31A022B01D9032326E0064BD5
:1012BC001B6803F00073002BF0D11EE07B68DB6928
:1012CC00012B07D1012319E00010024000700040EF
:1012DC00600042420B4B5B68FB60FB6803F480329E
:1012EC007B681B6A9A4206D1FB6803F470127B6818
:1012FC005B6A9A4201D0012300E00023184618379C
:10130C00BD4680BD0010024080B584B000AF78604F
:10131C0039607B68002B01D10123D0E06A4B1B683C
:10132C0003F007033A689A4210D9674B1B6823F005
:10133C00070265493B6813430B60634B1B6803F062
:10134C0007033A689A4201D00123B8E07B681B6816
:10135C0003F00203002B20D07B681B6803F004030E
:10136C00002B05D0594B5B68584A43F4E06353603B
:10137C007B681B6803F00803002B05D0534B5B689C
:10138C00524A43F460535360504B5B6823F0F002B5
:10139C007B689B684D4913434B607B681B6803F06B
:1013AC000103002B40D07B685B68012B07D1474BB6
:1013BC001B6803F40033002B15D101237FE07B68FD
:1013CC005B68022B07D1414B1B6803F00073002BA9
:1013DC0009D1012373E03D4B1B6803F00203002B82
:1013EC0001D101236BE0394B5B6823F003027B686E
:1013FC005B68364913434B60FFF758FAF8600AE014
:10140C00FFF754FA0246FB68D31A41F28832934232
:10141C0001D9032353E02D4B5B6803F00C027B686E
:10142C005B689B009A42EBD1274B1B6803F00703C8
:10143C003A689A4210D2244B1B6823F007022249C7
:10144C003B6813430B60204B1B6803F007033A689F
:10145C009A4201D0012332E07B681B6803F004033D
:10146C00002B08D0194B5B6823F4E0627B68DB68C7
:10147C00164913434B607B681B6803F00803002B71
:10148C0009D0124B5B6823F460527B681B69DB004C
:10149C000E4913434B6000F021F802460B4B5B687E
:1014AC001B0903F00F030A49CB5C22FA03F3094A28
:1014BC001360094B1B681846FFF7B6F90023184652
:1014CC001037BD4680BD00BF002002400010024016
:1014DC00281E0008040000200800002090B48AB0E8
:1014EC0000AF294B3C1D0FCB84E80F0040F20123C9
:1014FC003B800023FB610023BB6100237B62002344
:10150C007B6100233B62214B5B68FB61FB6903F051
:10151C000C03042B02D0082B03D02BE01C4B3B629A
:10152C002BE0FB699B0C03F00F0328333B4413F8AF
:10153C00243C7B61FB6903F48033002B12D0134BEA
:10154C005B685B0C03F0010328333B4413F8283C25
:10155C00BB617B690E4A03FB02F2BB69B2FBF3F37E
:10156C007B6204E07B690B4A02FB03F37B627B6AC0
:10157C003B6202E0064B3B6200BF3B6A18462837D1
:10158C00BD4690BC704700BF181E000800100240FA
:10159C0000127A0000093D0080B485B000AF78607D
:1015AC000A4B1B680A4AA2FB03235B0A7A6802FBFC
:1015BC0003F3FB6000BFFB685A1EFA60002BF9D1E5
:1015CC0000BF00BF1437BD4680BC7047040000202C
:1015DC00D34D621080B582B000AF78607B68002B71
:1015EC0001D1012341E07B6893F83D30DBB2002B45
:1015FC0006D17B68002283F83C207868FFF77CF8E2
:10160C007B68022283F83D207B681A687B68043370
:10161C001946104600F06AFA7B68012283F84620CE
:10162C007B68012283F83E207B68012283F83F20EF
:10163C007B68012283F840207B68012283F84120DB
:10164C007B68012283F842207B68012283F84320C7
:10165C007B68012283F844207B68012283F84520B3
:10166C007B68012283F83D20002318460837BD46CD
:10167C0080BD000080B485B000AF78607B6893F8C3
:10168C003D30DBB2012B01D0012335E07B68022217
:10169C0083F83D207B681B68DA687B681B6842F026
:1016AC000102DA607B681B68164A934209D07B689A
:1016BC001B68B3F1804F04D07B681B68124A9342BD
:1016CC0011D17B681B689B6803F00703FB60FB6808
:1016DC00062B10D07B681B681A687B681B6842F06D
:1016EC0001021A6007E07B681B681A687B681B683C
:1016FC0042F001021A60002318461437BD4680BC24
:10170C00704700BF002C01400004004080B582B03F
:10171C0000AF78607B681B681B6903F00203022B27
:10172C0022D17B681B68DB6803F00203022B1BD100
:10173C007B681B686FF002021A617B6801221A77C2
:10174C007B681B689B6903F00303002B03D078684C
:10175C0000F0B1F905E0786800F0A4F9786800F0C1
:10176C00B3F97B6800221A777B681B681B6903F04E
:10177C000403042B22D17B681B68DB6803F0040391
:10178C00042B1BD17B681B686FF004021A617B6809
:10179C0002221A777B681B689B6903F44073002B49
:1017AC0003D0786800F087F905E0786800F07AF9E2
:1017BC00786800F089F97B6800221A777B681B68CF
:1017CC001B6903F00803082B22D17B681B68DB68BC
:1017DC0003F00803082B1BD17B681B686FF0080211
:1017EC001A617B6804221A777B681B68DB6903F03B
:1017FC000303002B03D0786800F05DF905E07868EE
:10180C0000F050F9786800F05FF97B6800221A77D5
:10181C007B681B681B6903F01003102B22D17B68BB
:10182C001B68DB6803F01003102B1BD17B681B6853
:10183C006FF010021A617B6808221A777B681B68AC
:10184C00DB6903F44073002B03D0786800F033F9A4
:10185C0005E0786800F026F9786800F035F97B68C7
:10186C0000221A777B681B681B6903F00103012BAC
:10187C000ED17B681B68DB6803F00103012B07D1D9
:10188C007B681B686FF001021A617868FEF7C8FE6E
:10189C007B681B681B6903F08003802B0ED17B686F
:1018AC001B68DB6803F08003802B07D17B681B6807
:1018BC006FF080021A61786800F067FA7B681B6829
:1018CC001B6903F04003402B0ED17B681B68DB685F
:1018DC0003F04003402B07D17B681B686FF040027C
:1018EC001A61786800F0F9F87B681B681B6903F0D3
:1018FC002003202B0ED17B681B68DB6803F02003D0
:10190C00202B07D17B681B686FF020021A61786866
:10191C0000F032FA00BF0837BD4680BD80B584B0F8
:10192C0000AF786039607B6893F83C30012B01D1B3
:10193C000223B3E07B68012283F83C207B680222FF
:10194C0083F83D207B681B689B68FB60FB6823F079
:10195C007703FB60FB6823F47F43FB607B681B68A9
:10196C00FA689A603B681B68B3F5005F3ED0B3F52C
:10197C00005F00F28780B3F5805F00F08580B3F5DF
:10198C00805F7FD8702B1AD0702B7BD8602B50D0F7
:10199C00602B77D8502B3CD0502B73D8402B58D081
:1019AC00402B6FD8302B64D0302B6BD8202B60D0D1
:1019BC00202B67D8002B5CD0102B5AD062E07B68B0
:1019CC0018683B6899683B685A683B68DB6800F0AC
:1019DC005CF97B681B689B68FB60FB6843F07703D2
:1019EC00FB607B681B68FA689A604EE07B6818683D
:1019FC003B6899683B685A683B68DB6800F045F9BE
:101A0C007B681B689A687B681B6842F480429A600A
:101A1C003BE07B6818683B6859683B68DB681A4692
:101A2C0000F0BCF87B681B685021184600F013F9D5
:101A3C002BE07B6818683B6859683B68DB681A4682
:101A4C0000F0DAF87B681B686021184600F003F997
:101A5C001BE07B6818683B6859683B68DB681A4672
:101A6C0000F09CF87B681B684021184600F0F3F8E6
:101A7C000BE07B681A683B681B681946104600F03F
:101A8C00EAF802E000BF00E000BF7B68012283F8A7
:101A9C003D207B68002283F83C2000231846103739
:101AAC00BD4680BD80B483B000AF786000BF0C37FA
:101ABC00BD4680BC704780B483B000AF786000BF77
:101ACC000C37BD4680BC704780B483B000AF7860E3
:101ADC0000BF0C37BD4680BC704780B483B000AFEC
:101AEC00786000BF0C37BD4680BC704780B485B0B1
:101AFC0000AF786039607B681B68FB607B68254AA7
:101B0C00934207D07B68B3F1804F03D07B68224AA5
:101B1C00934208D1FB6823F07003FB603B685B6861
:101B2C00FA681343FB607B681A4A934207D07B68C0
:101B3C00B3F1804F03D07B68174A934208D1FB68FE
:101B4C0023F44073FB603B68DB68FA681343FB606B
:101B5C00FB6823F080023B685B691343FB607B6886
:101B6C00FA681A603B689A687B68DA623B681A68A4
:101B7C007B689A627B68074A934203D13B681A6977
:101B8C007B681A637B6801225A6100BF1437BD461B
:101B9C0080BC7047002C01400004004080B487B02A
:101BAC0000AFF860B9607A60FB681B6A7B61FB6808
:101BBC001B6A23F00102FB681A62FB689B693B619C
:101BCC003B6923F0F0033B617B681B013A691343CB
:101BDC003B617B6923F00A037B617A69BB68134321
:101BEC007B61FB683A699A61FB687A691A6200BF8B
:101BFC001C37BD4680BC704780B487B000AFF8601E
:101C0C00B9607A60FB681B6A23F01002FB681A62E9
:101C1C00FB689B697B61FB681B6A3B617B6923F4F6
:101C2C0070437B617B681B037A6913437B613B695F
:101C3C0023F0A0033B61BB681B013A6913433B6172
:101C4C00FB687A699A61FB683A691A6200BF1C37B3
:101C5C00BD4680BC704780B485B000AF78603960F9
:101C6C007B689B68FB60FB6823F07003FB603A6841
:101C7C00FB68134343F00703FB607B68FA689A60C8
:101C8C0000BF1437BD4680BC704780B487B000AF2E
:101C9C00F860B9607A603B60FB689B687B617B692C
:101CAC0023F47F437B613B681A027B681A43BB6851
:101CBC0013437A6913437B61FB687A699A6000BFAE
:101CCC001C37BD4680BC704780B485B000AF7860CF
:101CDC0039607B6893F83C30012B01D1022341E041
:101CEC007B68012283F83C207B68022283F83D202C
:101CFC007B681B685B68FB607B681B689B68BB60D0
:101D0C00FB6823F07003FB603B681B68FA681343A5
:101D1C00FB607B681B68FA685A607B681B68144A16
:101D2C00934209D07B681B68B3F1804F04D07B6869
:101D3C001B68104A93420CD1BB6823F08003BB6034
:101D4C003B685B68BA681343BB607B681B68BA6806
:101D5C009A607B68012283F83D207B68002283F81F
:101D6C003C20002318461437BD4680BC704700BF8A
:101D7C00002C01400004004080B483B000AF7860B8
:101D8C0000BF0C37BD4680BC704780B483B000AF39
:101D9C00786000BF0C37BD4680BC704770B500261C
:101DAC000C4D0D4C641BA410A64209D100F022F876
:101DBC0000260A4D0A4C641BA410A64205D170BD26
:101DCC0055F8043B98470136EEE755F8043B984725
:101DDC000136F2E7381E0008381E0008381E0008CD
:101DEC003C1E000803460244934200D1704703F89E
:101DFC00011BF9E7F8B500BFF8BC08BC9E4670475C
:0C1E0C00F8B500BFF8BC08BC9E4670474B
:101E180002030405060708090A0B0C0D0E0F101023
:101E28000000000000000000010203040607080982
:041E3800310100086C
:041E3C000D0100088C
:101E4000320000000024F400100000000100000037
:04000005080007BD2B
:00000001FF
