:020000040800F2
:1000000000280020F90D0008890D00088F0D000858
:10001000950D00089B0D0008A10D000800000000D0
:10002000000000000000000000000000A70D000814
:10003000B30D000800000000BF0D0008CB0D000844
:10004000410E0008410E0008410E0008410E000854
:10005000410E0008410E0008410E0008410E000844
:10006000410E0008410E0008410E0008410E000834
:10007000410E0008410E0008410E0008410E000824
:10008000410E0008410E0008410E0008410E000814
:10009000410E0008410E0008410E0008410E000804
:1000A000410E0008410E0008410E0008410E0008F4
:1000B000D90D0008410E000800000000410E0008A4
:1000C000410E00080000000000000000410E000882
:1000D00000000000410E0008410E00080000000072
:1000E000410E0008410E0008410E0008000000000B
:1000F0000000000000000000000000000000000000
:0C01000000000000000000005FF808F1A3
:10010C0010B5054C237833B9044B13B10448AFF345
:10011C0000800123237010BD180000200000000097
:10012C007024000808B5034B1BB103490348AFF317
:10013C00008008BD000000001C0000207024000896
:10014C0080B483B000AF7860074B1B687A6892FB71
:10015C00F3F3064A1360064B00221A6000BF0C37FB
:10016C00BD4680BC704700BF000000207C00002012
:10017C008000002080B483B000AF7860074B1B6810
:10018C007A6892FBF3F3064A1360064B00221A605E
:10019C0000BF0C37BD4680BC704700BF000000207C
:1001AC00840000208800002080B483B000AF786009
:1001BC00074B1B687A6892FBF3F3064A1360064BF5
:1001CC0000221A6000BF0C37BD4680BC704700BFD0
:1001DC00000000208C0000209000002080B400AFB4
:1001EC00194B1B68002B0BDD174B1B68013B164A88
:1001FC001360154B1B68002B02D1144B01221A60A3
:10020C00134B1B68002B0BDD114B1B68013B104A79
:10021C0013600F4B1B68002B02D10E4B01221A608E
:10022C000D4B1B68002B0BDD0B4B1B68013B0A4A6B
:10023C001360094B1B68002B02D1084B01221A607A
:10024C0000BFBD4680BC70477C00002080000020B1
:10025C0084000020880000208C00002090000020EA
:10026C0080B582B000AF78607B68002B22D1002271
:10027C000121BD4801F0CCF800220221BA4801F05E
:10028C00C7F800220421B84801F0C2F80022082166
:10029C00B54801F0BDF800221021B34801F0B8F8C0
:1002AC0000222021B04801F0B3F801224021AE48D1
:1002BC0001F0AEF87B68012B22D101220121AA4862
:1002CC0001F0A6F800220221A74801F0A1F80022B3
:1002DC000421A54801F09CF801220821A24801F054
:1002EC0097F801221021A04801F092F80122202158
:1002FC009D4801F08DF8012240219B4801F088F8BF
:10030C007B68022B22D100220121974801F080F852
:10031C0000220221944801F07BF80122042192482A
:10032C0001F076F8002208218F4801F071F80022C4
:10033C0010218D4801F06CF8012220218A4801F02F
:10034C0067F800224021884801F062F87B68032B93
:10035C0022D100220121844801F05AF80022022106
:10036C00814801F055F8002204217F4801F050F833
:10037C00002208217C4801F04BF8012210217A4818
:10038C0001F046F801222021774801F041F80022C3
:10039C004021754801F03CF87B68042B22D10122E6
:1003AC000121714801F034F8002202216E4801F05D
:1003BC002FF8002204216C4801F02AF801220821B0
:1003CC00694801F025F801221021674801F020F856
:1003DC0000222021644801F01BF8002240216248D1
:1003EC0001F016F87B68052B22D1002201215E4812
:1003FC0001F00EF8012202215B4801F009F80022FD
:10040C000421594801F004F800220821564800F054
:10041C00FFFF01221021544800F0FAFF0022202196
:10042C00514800F0F5FF002240214F4800F0F0FF4A
:10043C007B68062B22D1002201214B4800F0E8FFFB
:10044C0001220221484800F0E3FF00220421464823
:10045C0000F0DEFF00220821434800F0D9FF002203
:10046C001021414800F0D4FF002220213E4800F02A
:10047C00CFFF002240213C4800F0CAFF7B68072BCD
:10048C0022D100220121384800F0C2FF00220221B3
:10049C00354800F0BDFF00220421334800F0B8FFBE
:1004AC0001220821304800F0B3FF012210212E4810
:1004BC0000F0AEFF012220212B4800F0A9FF012201
:1004CC004021294800F0A4FF7B68082B22D1002290
:1004DC000121254800F09CFF00220221224800F057
:1004EC0097FF00220421204800F092FF00220821EF
:1004FC001D4800F08DFF002210211B4800F088FFE2
:10050C0000222021184800F083FF002240211648C9
:10051C0000F07EFF7B68092B22D1002201211248BA
:10052C0000F076FF002202210F4800F071FF00223C
:10053C0004210D4800F06CFF002208210A4800F04D
:10054C0067FF01221021084800F062FF00222021E1
:10055C00054800F05DFF00224021034800F058FFE1
:10056C0000BF0837BD4680BD000C014080B582B08D
:10057C0000AF786039607B68032B73D801A252F806
:10058C0023F000BFA1050008D505000809060008E6
:10059C003D06000800224021354800F039FF0122B9
:1005AC008021334800F034FF01224FF48071304831
:1005BC0000F02EFF01224FF400712D4800F028FFAF
:1005CC003868FFF74DFE4EE001224021284800F02C
:1005DC001FFF00228021264800F01AFF01224FF451
:1005EC008071234800F014FF01224FF40071204861
:1005FC0000F00EFF3868FFF733FE34E00122402193
:10060C001B4800F005FF01228021194800F000FF73
:10061C0000224FF48071164800F0FAFE01224FF4CC
:10062C000071134800F0F4FE3868FFF719FE1AE069
:10063C00012240210E4800F0EBFE012280210C48E3
:10064C0000F0E6FE01224FF48071094800F0E0FE54
:10065C0000224FF40071064800F0DAFE3868FFF70C
:10066C00FFFD00E000BF00BF0837BD4680BD00BFE6
:10067C000008014080B483B000AF786039607B68BB
:10068C00194A82FB03129210DB17D31A174A136014
:10069C007968154B83FB01239A10CB17D21A13469A
:1006AC009B0013445B00CA1A104B5A603B680E4AFD
:1006BC0082FB03129210DB17D31A0C4A9360396831
:1006CC00094B83FB01239A10CB17D21A13469B00BC
:1006DC0013445B00CA1A054BDA60044B18460C37FE
:1006EC00BD4680BC704700BF6766666694000020FC
:1006FC0080B500AF01224FF48071174800F088FEDE
:10070C0001224FF40071144800F082FE01224FF4D4
:10071C008061114800F07CFE01224FF400610E480C
:10072C0000F076FE01224FF480510B4800F070FE71
:10073C0001224FF40051084800F06AFE01224FF4E8
:10074C008041054800F064FE01224FF4004102484C
:10075C0000F05EFE00BF80BD000C014080B582B091
:10076C0000AF0346FB71FB7903F00103002B0CBFB8
:10077C0001230023DBB21A460421334800F048FE63
:10078C00FB7903F00203002B0CBF01230023DBB227
:10079C001A4608212C4800F03BFEFB7903F00403B9
:1007AC00002B0CBF01230023DBB21A464FF48061EF
:1007BC00254800F02DFEFB7903F00803002B0CBF3D
:1007CC0001230023DBB21A464FF400611E4800F0EF
:1007DC001FFEFB7903F01003002B0CBF0123002339
:1007EC00DBB21A464FF48051174800F011FEFB792A
:1007FC0003F02003002B0CBF01230023DBB21A46AD
:10080C004FF40051104800F003FEFB7903F0400355
:10081C00002B0CBF01230023DBB21A464FF480419E
:10082C00094800F0F5FD97F90730DB43DBB2DB0933
:10083C00DBB21A464FF40041034800F0E9FD00BF5B
:10084C000837BD4680BD00BF0008014080B582B0AE
:10085C0000AF78607B68072B00F2948001A252F8FD
:10086C0023F000BF91080008B1080008D108000867
:10087C00F1080008110900083109000851090008A5
:10088C0071090008FFF734FF00224FF480714048D3
:10089C0000F0BEFD3F4A7B6813441B781846FFF7F7
:1008AC005DFF70E0FFF724FF00224FF40071384821
:1008BC0000F0AEFD374A7B6813441B781846FFF7EF
:1008CC004DFF60E0FFF714FF00224FF480613048C9
:1008DC0000F09EFD2F4A7B6813441B781846FFF7E7
:1008EC003DFF50E0FFF704FF00224FF40061284861
:1008FC0000F08EFD274A7B6813441B781846FFF7DF
:10090C002DFF40E0FFF7F4FE00224FF48051204809
:10091C0000F07EFD1F4A7B6813441B781846FFF7D6
:10092C001DFF30E0FFF7E4FE00224FF400511848A1
:10093C0000F06EFD174A7B6813441B781846FFF7CE
:10094C000DFF20E0FFF7D4FE00224FF48041104849
:10095C0000F05EFD0F4A7B6813441B781846FFF7C6
:10096C00FDFE10E0FFF7C4FE00224FF400410848E2
:10097C0000F04EFD074A7B6813441B781846FFF7BE
:10098C00EDFE00E000BF00BF0837BD4680BD00BFD4
:10099C00000C01400400002080B483B000AF0023A1
:1009AC007B6012E00D4A7B6813441B781A46D3B265
:1009BC005908D3010A461343D9B2084A7B68134439
:1009CC000A461A707B6801337B607B68072BE9DD74
:1009DC0000BF00BF0C37BD4680BC70470400002030
:1009EC0080B588B000AF00F027FA00F093F800F063
:1009FC0019F900F0CBF8414801F074F90F23FB61B1
:100A0C000823BB6132237B6100233B610023FB6025
:100A1C000023BB604FF47A70FFF792FBFA20FFF7CC
:100A2C00A9FB0A20FFF7C0FB354B1B68012B1FD11C
:100A3C004FF47A70FFF784FB7B6901337B617B6930
:100A4C003B2B04DD00237B61BB690133BB61BB69BC
:100A5C003B2B04DD0023BB61FB690133FB61FB69AC
:100A6C00172B01DD0023FB611021264800F0E8FC68
:100A7C00254B1B68012B2BD1FA20FFF77BFB3B6925
:100A8C00032B03DD00233B610023FB60B969F8698C
:100A9C00FFF7F0FD78607B681B681C4A13607B686D
:100AAC005B681A4A53607B689B68184A93607B6842
:100ABC00DB68164AD3603A69531C3B61FB68591CCE
:100ACC00F960124951F8233019461046FFF74EFDD4
:100ADC000F4B1B68012BA7D10A20FFF765FBBB68E6
:100AEC00072B03DD0023BB60FFF756FFBB685A1CC6
:100AFC00BA601846FFF7AAFE96E700BF3400002044
:100B0C00800000200008014088000020A400002084
:100B1C009000002080B590B000AF07F11803282298
:100B2C000021184601F096FC3B1D00221A605A6009
:100B3C009A60DA601A610223BB610123BB62102345
:100B4C00FB6200237B6307F11803184600F092FC4C
:100B5C000346002B01D000F0C5F80F237B60002367
:100B6C00BB600023FB6000233B6100237B613B1DCA
:100B7C000021184600F000FF0346002B01D000F0C6
:100B8C00B1F800BF4037BD4680BD000080B586B0CF
:100B9C0000AF07F1080300221A605A609A60DA600D
:100BAC003B4600221A605A601D4B4FF080421A607F
:100BBC001B4B41F63F725A60194B00229A60184B3E
:100BCC000A22DA60164B00221A61154B00229A6138
:100BDC00134801F037F80346002B01D000F082F8DF
:100BEC004FF48053BB6007F1080319460C4801F021
:100BFC00CDF90346002B01D000F074F800233B60C4
:100C0C0000237B603B461946054801F095FB0346E3
:100C1C00002B01D000F066F800BF1837BD4680BD30
:100C2C003400002080B586B000AF07F10803002225
:100C3C001A605A609A60DA60224B9B69214A43F031
:100C4C00040393611F4B9B6903F004037B607B6877
:100C5C001C4B9B691B4A43F008039361194B9B691E
:100C6C0003F008033B603B6800224FF6FC7116480A
:100C7C0000F0CEFB00224FF67F71144800F0C8FB49
:100C8C004FF6FC73BB600123FB6000233B61022326
:100C9C007B6107F1080319460B4800F03DFA4FF64B
:100CAC007F73BB600123FB6000233B6102237B61EC
:100CBC0007F108031946054800F02EFA00BF183753
:100CCC00BD4680BD0010024000080140000C0140F0
:100CDC0080B582B000AF7860FFF780FA00BF0837AC
:100CEC00BD4680BD80B400AF72B600BFFEE7000009
:100CFC0080B483B000AF0E4B9B690D4A43F00103E7
:100D0C0093610B4B9B6903F001037B607B68084B81
:100D1C00DB69074A43F08053D361054BDB6903F071
:100D2C0080533B603B6800BF0C37BD4680BC7047AE
:100D3C000010024080B584B000AF78607B681B68FF
:100D4C00B3F1804F13D10C4BDB690B4A43F0010319
:100D5C00D361094BDB6903F00103FB60FB680022E4
:100D6C0000211C2000F0A1F91C2000F0BAF900BFF2
:100D7C001037BD4680BD00BF0010024080B400AFEC
:100D8C00FEE780B400AFFEE780B400AFFEE780B4AE
:100D9C0000AFFEE780B400AFFEE780B400AF00BF49
:100DAC00BD4680BC704780B400AF00BFBD4680BC60
:100DBC00704780B400AF00BFBD4680BC704780B5A3
:100DCC0000AF00F07FF800BF80BD000080B500AF21
:100DDC00024800F0D3FF00BF80BD00BF34000020EC
:100DEC0080B400AF00BFBD4680BC70470C480D49B5
:100DFC000D4A002302E0D458C4500433C4188C426A
:100E0C00F9D30A4A0A4C002301E013600432A242CF
:100E1C00FBD3FFF7E5FF01F0F9FAFFF7E1FD7047AF
:100E2C000000002018000020B0240008180000204A
:100E3C00B8000020FEE7000080B500AF084B1B682F
:100E4C00074A43F010031360032000F023F90F202E
:100E5C0000F008F8FFF74CFF0023184680BD00BFD8
:100E6C000020024080B582B000AF7860124B1A6847
:100E7C00124B1B7819464FF47A73B3FBF1F3B2FBA8
:100E8C00F3F3184600F03BF90346002B01D0012385
:100E9C000EE07B680F2B0AD8002279684FF0FF30E8
:100EAC0000F003F9064A7B681360002300E001237D
:100EBC0018460837BD4680BD0C00002014000020E9
:100ECC001000002080B400AF054B1B781A46054B70
:100EDC001B681344034A136000BFBD4680BC7047B7
:100EEC0014000020B400002080B400AF024B1B683B
:100EFC001846BD4680BC7047B400002080B485B055
:100F0C0000AF78607B6803F00703FB600C4BDB6879
:100F1C00BB60BA684FF6FF031340BB60FB681A0254
:100F2C00BB68134343F0BF6343F40033BB60044A14
:100F3C00BB68D36000BF1437BD4680BC704700BF90
:100F4C0000ED00E080B400AF044BDB681B0A03F03B
:100F5C0007031846BD4680BC704700BF00ED00E09B
:100F6C0080B483B000AF0346FB7197F90730002BB8
:100F7C000BDBFB7903F01F02064997F907305B097D
:100F8C00012000FA02F241F8232000BF0C37BD46C5
:100F9C0080BC704700E100E080B483B000AF034632
:100FAC003960FB7197F90730002B0ADB3B68DAB22A
:100FBC000C4997F907301201D2B20B4483F8002385
:100FCC000AE03B68DAB20849FB7903F00F03043BF3
:100FDC001201D2B20B441A7600BF0C37BD4680BC4E
:100FEC00704700BF00E100E000ED00E080B489B084
:100FFC0000AFF860B9607A60FB6803F00703FB612F
:10100C00FB69C3F10703042B28BF0423BB61FB69F5
:10101C000433062B02D9FB69033B00E000237B6100
:10102C004FF0FF32BB6902FA03F3DA43BB681A4094
:10103C007B699A404FF0FF317B6901FA03F3D94386
:10104C007B680B40134318462437BD4680BC704761
:10105C0080B582B000AF78607B68013BB3F1807FD4
:10106C0001D301230FE00A4A7B68013B53600F2137
:10107C004FF0FF30FFF790FF054B00229A60044BB6
:10108C0007221A60002318460837BD4680BD00BFF2
:10109C0010E000E080B582B000AF78607868FFF7B0
:1010AC002DFF00BF0837BD4680BD80B586B000AFB0
:1010BC000346B9607A60FB7300237B61FFF742FF44
:1010CC0078617A68B9687869FFF790FF024697F9FA
:1010DC000F3011461846FFF75FFF00BF1837BD46AB
:1010EC0080BD80B582B000AF0346FB7197F9073025
:1010FC001846FFF735FF00BF0837BD4680BD80B5E9
:10110C0082B000AF78607868FFF7A2FF03461846FC
:10111C000837BD4680BD000080B48BB000AF78604E
:10112C00396000237B6200233B6261E101227B6A10
:10113C0002FA03F3FB613B681B68FA691340BB615D
:10114C00BA69FB699A4240F050813B685B68974AE8
:10115C0093425ED0954A934275D8954A934258D0A3
:10116C00934A93426FD8934A934252D0914A9342F6
:10117C0069D8914A93424CD08F4A934263D88F4A94
:10118C00934246D08D4A93425DD8122B2AD8122B0B
:10119C0059D801A252F823F01F120008F9110008C7
:1011AC000B1200084D1200085312000853120008CD
:1011BC00531200085312000853120008531200086F
:1011CC00531200085312000853120008531200085F
:1011DC0053120008531200085312000801120008A1
:1011EC0015120008764A934213D02CE03B68DB685A
:1011FC003B6229E03B68DB6804333B6224E03B68DC
:10120C00DB6808333B621FE03B68DB680C333B62F6
:10121C001AE03B689B68002B02D104233B6213E06D
:10122C003B689B68012B05D108233B627B68FA69FC
:10123C001A6109E008233B627B68FA695A6103E092
:10124C0000233B6200E000BFBB69FF2B01D87B6829
:10125C0001E07B6804337B61BB69FF2B02D87B6A9E
:10126C009B0002E07B6A083B9B003B617B691A6830
:10127C000F213B6901FA03F3DB431A40396A3B69DE
:10128C0001FA03F31A437B691A603B685B6803F04D
:10129C008053002B00F0A9804A4B9B69494A43F0CC
:1012AC0001039361474B9B6903F00103BB60BB686F
:1012BC00454A7B6A9B08023352F82330FB607B6AF9
:1012CC0003F003039B000F2202FA03F3DB43FA68DB
:1012DC001340FB607B683D4A93420DD07B683C4ACF
:1012EC00934207D07B683B4A934201D1022304E02E
:1012FC00032302E0012300E000237A6A02F00302D8
:10130C0092009340FA681343FB602F497B6A9B0859
:10131C000233FA6841F823203B685B6803F480339E
:10132C00002B06D02C4B1A682B49BB6913430B605E
:10133C0006E0294B1A68BB69DB43274913400B6055
:10134C003B685B6803F40033002B06D0224B5A68D1
:10135C002149BB6913434B6006E01F4B5A68BB69BC
:10136C00DB431D4913404B603B685B6803F48013FF
:10137C00002B06D0184B9A681749BB6913438B6036
:10138C0006E0154B9A68BB69DB43134913408B602D
:10139C003B685B6803F40013002B1FD00E4BDA681C
:1013AC000D49BB691343CB601FE000BF0000321036
:1013BC00000031100000221000002110000012105B
:1013CC000000111000100240000001400008014014
:1013DC00000C014000100140000401400B4BDA6886
:1013EC00BB69DB4309491340CB607B6A01337B62E9
:1013FC003B681A687B6A22FA03F3002B7FF496AEE3
:10140C0000BF00BF2C37BD4680BC704700040140B4
:10141C0080B483B000AF78600B467B8013467B7042
:10142C007B78002B03D07A887B681A6103E07B8879
:10143C001A047B681A6100BF0C37BD4680BC70472C
:10144C0080B485B000AF78600B467B807B68DB682E
:10145C00FB607A88FB6813401A04FB68D9437B88CD
:10146C000B401A437B681A6100BF1437BD4680BC21
:10147C007047000080B586B000AF78607B68002BA9
:10148C0001D1012372E27B681B6803F00103002B7E
:10149C0000F08780924B5B6803F00C03042B0CD09C
:1014AC008F4B5B6803F00C03082B12D18C4B5B68E1
:1014BC0003F48033B3F5803F0BD1894B1B6803F4E5
:1014CC000033002B6CD07B685B68002B68D1012348
:1014DC004CE27B685B68B3F5803F06D1804B1B68A0
:1014EC007F4A43F4803313602EE07B685B68002BEB
:1014FC000CD17B4B1B687A4A23F480331360784BF6
:10150C001B68774A23F4802313601DE07B685B68BB
:10151C00B3F5A02F0CD1724B1B68714A43F4802396
:10152C0013606F4B1B686E4A43F4803313600BE0FF
:10153C006B4B1B686A4A23F480331360684B1B683F
:10154C00674A23F4802313607B685B68002B13D0FD
:10155C00FFF7CAFC386108E0FFF7C6FC02463B699E
:10156C00D31A642B01D9032300E25D4B1B6803F4EF
:10157C000033002BF0D014E0FFF7B6FC386108E024
:10158C00FFF7B2FC02463B69D31A642B01D9032343
:10159C00ECE1534B1B6803F40033002BF0D100E05B
:1015AC0000BF7B681B6803F00203002B63D04C4B1D
:1015BC005B6803F00C03002B0BD0494B5B6803F00A
:1015CC000C03082B1CD1464B5B6803F48033002BB7
:1015DC0016D1434B1B6803F00203002B05D07B682C
:1015EC001B69012B01D00123C0E13D4B1B6823F08B
:1015FC00F8027B685B69DB00394913430B603AE006
:10160C007B681B69002B20D0364B01221A60FFF738
:10161C006BFC386108E0FFF767FC02463B69D31AA4
:10162C00022B01D90323A1E12D4B1B6803F002030C
:10163C00002BF0D02A4B1B6823F0F8027B685B6907
:10164C00DB00274913430B6015E0264B00221A6080
:10165C00FFF74AFC386108E0FFF746FC02463B699D
:10166C00D31A022B01D9032380E11D4B1B6803F015
:10167C000203002BF0D17B681B6803F00803002BDE
:10168C003AD07B689B69002B19D0174B01221A604A
:10169C00FFF72AFC386108E0FFF726FC02463B699D
:1016AC00D31A022B01D9032360E10D4B5B6A03F0C3
:1016BC000203002BF0D0012000F0A6FA1CE00A4B2C
:1016CC0000221A60FFF710FC38610FE0FFF70CFCEA
:1016DC0002463B69D31A022B08D9032346E100BF0B
:1016EC00001002400000424280044242924B5B6A6E
:1016FC0003F00203002BE9D17B681B6803F00403A1
:10170C00002B00F0A6800023FB758B4BDB6903F0EC
:10171C008053002B0DD1884BDB69874A43F08053F3
:10172C00D361854BDB6903F08053BB60BB6801233D
:10173C00FB75824B1B6803F48073002B18D17F4B15
:10174C001B687E4A43F480731360FFF7CDFB38614E
:10175C0008E0FFF7C9FB02463B69D31A642B01D999
:10176C00032303E1754B1B6803F48073002BF0D04B
:10177C007B68DB68012B06D16F4B1B6A6E4A43F00A
:10178C00010313622DE07B68DB68002B0CD16A4BE4
:10179C001B6A694A23F001031362674B1B6A664A92
:1017AC0023F0040313621CE07B68DB68052B0CD16F
:1017BC00614B1B6A604A43F0040313625E4B1B6A65
:1017CC005D4A43F0010313620BE05B4B1B6A5A4A00
:1017DC0023F001031362584B1B6A574A23F004038E
:1017EC0013627B68DB68002B15D0FFF77DFB38613B
:1017FC000AE0FFF779FB02463B69D31A41F28832C3
:10180C00934201D90323B1E04B4B1B6A03F0020353
:10181C00002BEED014E0FFF767FB38610AE0FFF70E
:10182C0063FB02463B69D31A41F28832934201D9D9
:10183C0003239BE0404B1B6A03F00203002BEED109
:10184C00FB7D012B05D13C4BDB693B4A23F08053DC
:10185C00D3617B68DB69002B00F08780364B5B68BB
:10186C0003F00C03082B61D07B68DB69022B46D19B
:10187C00334B00221A60FFF737FB386108E0FFF7A3
:10188C0033FB02463B69D31A022B01D903236DE0CB
:10189C00294B1B6803F00073002BF0D17B681B6A8B
:1018AC00B3F5803F08D1244B5B6823F400327B688E
:1018BC009B68214913434B601F4B5B6823F47412E4
:1018CC007B68196A7B685B6A0B431B4913434B604B
:1018DC001B4B01221A60FFF707FB386108E0FFF78A
:1018EC0003FB02463B69D31A022B01D903233DE0CB
:1018FC00114B1B6803F00073002BF0D035E0104B3C
:10190C0000221A60FFF7F0FA386108E0FFF7ECFAF2
:10191C0002463B69D31A022B01D9032326E0064B5E
:10192C001B6803F00073002BF0D11EE07B68DB69B1
:10193C00012B07D1012319E0001002400070004078
:10194C00600042420B4B5B68FB60FB6803F4803227
:10195C007B681B6A9A4206D1FB6803F470127B68A1
:10196C005B6A9A4201D0012300E000231846183725
:10197C00BD4680BD0010024080B584B000AF7860D9
:10198C0039607B68002B01D10123D0E06A4B1B68C6
:10199C0003F007033A689A4210D9674B1B6823F08F
:1019AC00070265493B6813430B60634B1B6803F0EC
:1019BC0007033A689A4201D00123B8E07B681B68A0
:1019CC0003F00203002B20D07B681B6803F0040398
:1019DC00002B05D0594B5B68584A43F4E0635360C5
:1019EC007B681B6803F00803002B05D0534B5B6826
:1019FC00524A43F460535360504B5B6823F0F0023F
:101A0C007B689B684D4913434B607B681B6803F0F4
:101A1C000103002B40D07B685B68012B07D1474B3F
:101A2C001B6803F40033002B15D101237FE07B6886
:101A3C005B68022B07D1414B1B6803F00073002B32
:101A4C0009D1012373E03D4B1B6803F00203002B0B
:101A5C0001D101236BE0394B5B6823F003027B68F7
:101A6C005B68364913434B60FFF73EFAF8600AE0B7
:101A7C00FFF73AFA0246FB68D31A41F288329342D6
:101A8C0001D9032353E02D4B5B6803F00C027B68F8
:101A9C005B689B009A42EBD1274B1B6803F0070352
:101AAC003A689A4210D2244B1B6823F00702224951
:101ABC003B6813430B60204B1B6803F007033A6829
:101ACC009A4201D0012332E07B681B6803F00403C7
:101ADC00002B08D0194B5B6823F4E0627B68DB6851
:101AEC00164913434B607B681B6803F00803002BFB
:101AFC0009D0124B5B6823F460527B681B69DB00D6
:101B0C000E4913434B6000F021F802460B4B5B6807
:101B1C001B0903F00F030A49CB5C22FA03F3094AB1
:101B2C001360094B1B681846FFF79CF900231846F5
:101B3C001037BD4680BD00BF00200240001002409F
:101B4C00982400080C0000201000002090B48AB0EB
:101B5C0000AF294B3C1D0FCB84E80F0040F2012352
:101B6C003B800023FB610023BB6100237B620023CD
:101B7C007B6100233B62214B5B68FB61FB6903F0DB
:101B8C000C03042B02D0082B03D02BE01C4B3B6224
:101B9C002BE0FB699B0C03F00F0328333B4413F839
:101BAC00243C7B61FB6903F48033002B12D0134B74
:101BBC005B685B0C03F0010328333B4413F8283CAF
:101BCC00BB617B690E4A03FB02F2BB69B2FBF3F308
:101BDC007B6204E07B690B4A02FB03F37B627B6A4A
:101BEC003B6202E0064B3B6200BF3B6A184628375B
:101BFC00BD4690BC704700BF88240008001002400E
:101C0C0000127A0000093D0080B485B000AF786006
:101C1C000A4B1B680A4AA2FB03235B0A7A6802FB85
:101C2C0003F3FB6000BFFB685A1EFA60002BF9D16E
:101C3C0000BF00BF1437BD4680BC70470C000020AD
:101C4C00D34D621080B582B000AF78607B68002BFA
:101C5C0001D1012341E07B6893F83D30DBB2002BCE
:101C6C0006D17B68002283F83C207868FFF762F885
:101C7C007B68022283F83D207B681A687B680433FA
:101C8C001946104600F06AFA7B68012283F8462058
:101C9C007B68012283F83E207B68012283F83F2079
:101CAC007B68012283F840207B68012283F8412065
:101CBC007B68012283F842207B68012283F8432051
:101CCC007B68012283F844207B68012283F845203D
:101CDC007B68012283F83D20002318460837BD4657
:101CEC0080BD000080B485B000AF78607B6893F84D
:101CFC003D30DBB2012B01D0012335E07B680222A1
:101D0C0083F83D207B681B68DA687B681B6842F0AF
:101D1C000102DA607B681B68164A934209D07B6823
:101D2C001B68B3F1804F04D07B681B68124A934246
:101D3C0011D17B681B689B6803F00703FB60FB6891
:101D4C00062B10D07B681B681A687B681B6842F0F6
:101D5C0001021A6007E07B681B681A687B681B68C5
:101D6C0042F001021A60002318461437BD4680BCAD
:101D7C00704700BF002C01400004004080B582B0C9
:101D8C0000AF78607B681B681B6903F00203022BB1
:101D9C0022D17B681B68DB6803F00203022B1BD18A
:101DAC007B681B686FF002021A617B6801221A774C
:101DBC007B681B689B6903F00303002B03D07868D6
:101DCC0000F0B1F905E0786800F0A4F9786800F04B
:101DDC00B3F97B6800221A777B681B681B6903F0D8
:101DEC000403042B22D17B681B68DB6803F004031B
:101DFC00042B1BD17B681B686FF004021A617B6893
:101E0C0002221A777B681B689B6903F44073002BD2
:101E1C0003D0786800F087F905E0786800F07AF96B
:101E2C00786800F089F97B6800221A777B681B6858
:101E3C001B6903F00803082B22D17B681B68DB6845
:101E4C0003F00803082B1BD17B681B686FF008029A
:101E5C001A617B6804221A777B681B68DB6903F0C4
:101E6C000303002B03D0786800F05DF905E0786877
:101E7C0000F050F9786800F05FF97B6800221A775F
:101E8C007B681B681B6903F01003102B22D17B6845
:101E9C001B68DB6803F01003102B1BD17B681B68DD
:101EAC006FF010021A617B6808221A777B681B6836
:101EBC00DB6903F44073002B03D0786800F033F92E
:101ECC0005E0786800F026F9786800F035F97B6851
:101EDC0000221A777B681B681B6903F00103012B36
:101EEC000ED17B681B68DB6803F00103012B07D163
:101EFC007B681B686FF001021A617868FEF7E8FED8
:101F0C007B681B681B6903F08003802B0ED17B68F8
:101F1C001B68DB6803F08003802B07D17B681B6890
:101F2C006FF080021A61786800F067FA7B681B68B2
:101F3C001B6903F04003402B0ED17B681B68DB68E8
:101F4C0003F04003402B07D17B681B686FF0400205
:101F5C001A61786800F0F9F87B681B681B6903F05C
:101F6C002003202B0ED17B681B68DB6803F0200359
:101F7C00202B07D17B681B686FF020021A617868F0
:101F8C0000F032FA00BF0837BD4680BD80B584B082
:101F9C0000AF786039607B6893F83C30012B01D13D
:101FAC000223B3E07B68012283F83C207B68022289
:101FBC0083F83D207B681B689B68FB60FB6823F003
:101FCC007703FB60FB6823F47F43FB607B681B6833
:101FDC00FA689A603B681B68B3F5005F3ED0B3F5B6
:101FEC00005F00F28780B3F5805F00F08580B3F569
:101FFC00805F7FD8702B1AD0702B7BD8602B50D081
:10200C00602B77D8502B3CD0502B73D8402B58D00A
:10201C00402B6FD8302B64D0302B6BD8202B60D05A
:10202C00202B67D8002B5CD0102B5AD062E07B6839
:10203C0018683B6899683B685A683B68DB6800F035
:10204C005CF97B681B689B68FB60FB6843F077035B
:10205C00FB607B681B68FA689A604EE07B681868C6
:10206C003B6899683B685A683B68DB6800F045F947
:10207C007B681B689A687B681B6842F480429A6094
:10208C003BE07B6818683B6859683B68DB681A461C
:10209C0000F0BCF87B681B685021184600F013F95F
:1020AC002BE07B6818683B6859683B68DB681A460C
:1020BC0000F0DAF87B681B686021184600F003F921
:1020CC001BE07B6818683B6859683B68DB681A46FC
:1020DC0000F09CF87B681B684021184600F0F3F870
:1020EC000BE07B681A683B681B681946104600F0C9
:1020FC00EAF802E000BF00E000BF7B68012283F831
:10210C003D207B68002283F83C20002318461037C2
:10211C00BD4680BD80B483B000AF786000BF0C3783
:10212C00BD4680BC704780B483B000AF786000BF00
:10213C000C37BD4680BC704780B483B000AF78606C
:10214C0000BF0C37BD4680BC704780B483B000AF75
:10215C00786000BF0C37BD4680BC704780B485B03A
:10216C0000AF786039607B681B68FB607B68254A30
:10217C00934207D07B68B3F1804F03D07B68224A2F
:10218C00934208D1FB6823F07003FB603B685B68EB
:10219C00FA681343FB607B681A4A934207D07B684A
:1021AC00B3F1804F03D07B68174A934208D1FB6888
:1021BC0023F44073FB603B68DB68FA681343FB60F5
:1021CC00FB6823F080023B685B691343FB607B6810
:1021DC00FA681A603B689A687B68DA623B681A682E
:1021EC007B689A627B68074A934203D13B681A6901
:1021FC007B681A637B6801225A6100BF1437BD46A5
:10220C0080BC7047002C01400004004080B487B0B3
:10221C0000AFF860B9607A60FB681B6A7B61FB6891
:10222C001B6A23F00102FB681A62FB689B693B6125
:10223C003B6923F0F0033B617B681B013A69134354
:10224C003B617B6923F00A037B617A69BB681343AA
:10225C007B61FB683A699A61FB687A691A6200BF14
:10226C001C37BD4680BC704780B487B000AFF860A7
:10227C00B9607A60FB681B6A23F01002FB681A6273
:10228C00FB689B697B61FB681B6A3B617B6923F480
:10229C0070437B617B681B037A6913437B613B69E9
:1022AC0023F0A0033B61BB681B013A6913433B61FC
:1022BC00FB687A699A61FB683A691A6200BF1C373D
:1022CC00BD4680BC704780B485B000AF7860396083
:1022DC007B689B68FB60FB6823F07003FB603A68CB
:1022EC00FB68134343F00703FB607B68FA689A6052
:1022FC0000BF1437BD4680BC704780B487B000AFB8
:10230C00F860B9607A603B60FB689B687B617B69B5
:10231C0023F47F437B613B681A027B681A43BB68DA
:10232C0013437A6913437B61FB687A699A6000BF37
:10233C001C37BD4680BC704780B485B000AF786058
:10234C0039607B6893F83C30012B01D1022341E0CA
:10235C007B68012283F83C207B68022283F83D20B5
:10236C007B681B685B68FB607B681B689B68BB6059
:10237C00FB6823F07003FB603B681B68FA6813432F
:10238C00FB607B681B68FA685A607B681B68144AA0
:10239C00934209D07B681B68B3F1804F04D07B68F3
:1023AC001B68104A93420CD1BB6823F08003BB60BE
:1023BC003B685B68BA681343BB607B681B68BA6890
:1023CC009A607B68012283F83D207B68002283F8A9
:1023DC003C20002318461437BD4680BC704700BF14
:1023EC00002C01400004004080B483B000AF786042
:1023FC0000BF0C37BD4680BC704780B483B000AFC3
:10240C00786000BF0C37BD4680BC704770B50026A5
:10241C000C4D0D4C641BA410A64209D100F022F8FF
:10242C0000260A4D0A4C641BA410A64205D170BDAF
:10243C0055F8043B98470136EEE755F8043B9847AE
:10244C000136F2E7A8240008A8240008A8240008F4
:10245C00AC24000803460244934200D1704703F8B1
:10246C00011BF9E7F8B500BFF8BC08BC9E467047E5
:0C247C00F8B500BFF8BC08BC9E467047D5
:1024880002030405060708090A0B0C0D0E0F1010AD
:10249800000000000000000001020304060708090C
:0424A80031010008F6
:0424AC000D01000816
:1024B0000A000000183C66667E6666660024F4002A
:0824C000100000000100000003
:0400000508000DF9E9
:00000001FF
